:1000000045C0000060C000005EC000005CC0000091
:100010005AC0000058C0000056C0000054C0000084
:1000200052C0000050C000004EC000004CC0000094
:100030004AC0000048C0000046C0000044C00000A4
:1000400042C0000040C0000044C200003CC00000AC
:100050003AC0000038C0000036C0000034C00000C4
:1000600032C0000030C000002EC000002CC00000D4
:100070002AC0000028C0000026C0000024C00000E4
:1000800022C0000020C000001EC0000011241FBEBE
:10009000CFEFD0E1DEBFCDBF11E0A0E0B1E0E4EEF4
:1000A000FCE000E00BBF02C007900D92AE31B1073B
:1000B000D9F721E0AEE1B1E001C01D92A032B20754
:1000C000E1F71CD20DC69CCF81B38C7F81BB82B37C
:1000D000836082BB1092710088E48093700084E09A
:1000E00080937400089584EA809374008091740072
:1000F0008823E4F78EE48093730084E8809374008F
:10010000809174008823E4F7089584E98093740053
:1001100008958093730084E8809374008091740044
:100120008823E4F70895CF93C82FDDDF8C2F8860F4
:10013000F0DF8C2F8C60EDDF85E08A95F1F7000011
:100140008C2F837F8860E5DFE0DF87EC90E001970C
:10015000F1F700C00000CF910895CF93C82F807FA2
:10016000E2DF8C2F8295807FDEDFC150C23030F419
:100170008FE39FE10197F1F700C00000CF91089550
:10018000CF93C82F807F8160CEDF20E1C29FC00166
:1001900011248160C8DFCF91089596DF2FEF80E7AB
:1001A00092E0215080409040E1F700C0000080E3E1
:1001B000BADF8FE19EE40197F1F700C0000080E311
:1001C000B2DF8FE193E00197F1F700C0000080E318
:1001D000AADF80E2A8DF88E2C0DF8CE0BEDF86E035
:1001E000BCDF81E0BACF089581E0B7CF08958111D7
:1001F00004C080E8860FB1CF089580EC860FADCFA4
:100200000895CF93DF93EA01F2DF02C0B9DF2196B0
:1002100088818111FBCFDF91CF91089582B18E7FCC
:1002200082B982B1826082B91BB81092900080E1DD
:1002300089B988E98AB986E08093950008955D9B25
:10024000FECF8CB90895E1E6F0E080818E7F808357
:10025000E2E6F0E080818E7F808380E487B987E8E2
:1002600086B986B1806486B93699FECF089586B185
:10027000806486B93699FECF84B195B10895E0E0E7
:10028000F0E019C0DB01AE0FBF1F2C9130E0322F20
:1002900022278227932720E00BC0992334F4880F6C
:1002A000991F35E08327905802C0880F991F2F5F50
:1002B000283098F33196E417F50720F30895CF928C
:1002C000DF92EF92FF92CF93C12CD12C7601C0E048
:1002D0000CC0CDDFC80ED91EE11CF11C8FE891E0E7
:1002E0000197F1F700C00000CF5FC83090F3D7014D
:1002F000C601689412F8B695A795979587951694B8
:10030000D1F7CF91FF90EF90DF90CF900895EF92CB
:10031000FF920F931F93CF93DF93CDB7DEB7649710
:100320000FB6F894DEBF0FBECDBFE22FF0E03596DA
:100330009FEF99839A839DEF9B831C828D83EE832D
:10034000FF8383E0888769877A8780E01AE00DC0A1
:10035000FA01E80FF11D9081E1E0F0E0EC0FFD1FE4
:10036000E10FF11D90838F5F1F5F821788F3E12EED
:10037000F12CA701BE016F5F7F4F80E090E07FDF2F
:1003800021E0210FE1E0F0E0EC0FFD1FEE0DFF1D7D
:10039000808302E0010FE1E0F0E0EC0FFD1FE20FCF
:1003A000F11D908383B1846083B985E38A95F1F769
:1003B00000008BB180648BB910E009C0E1E0F0E08F
:1003C000EC0FFD1FE10FF11D808139DF1F5F10175A
:1003D000A8F35E9BFECF8BB180648BB964960FB699
:1003E000F894DEBF0FBECDBFDF91CF911F910F916B
:1003F000FF90EF900895CF93DF931F92CDB7DEB7B4
:10040000498321E0AE014F5F5F4F81DF0F90DF91A5
:10041000CF910895CF93DF9300D000D0CDB7DEB752
:1004200029833A834B835C8324E0AE014F5F5F4FA7
:100430006EDF0F900F900F900F90DF91CF91089586
:10044000DF92EF92FF920F931F93CF93DF93CDB77D
:10045000DEB7A2970FB6F894DEBF0FBECDBF062F52
:10046000D72E9F938F9380E091E09F938F931F925D
:1004700011E11F93CE0101967C019F938F9347D189
:10048000DF920F938FE091E09F938F931F921F93C2
:100490008E010E5E1F4F1F930F9339D1A70160E0AD
:1004A00080E0AFDEA80160E081E0ABDE0FB6F8943B
:1004B000DEBF0FBECDBFA2960FB6F894DEBF0FBE53
:1004C000CDBFDF91CF911F910F91FF90EF90DF9003
:1004D00008951F920F920FB60F9211248F938CB133
:1004E00080538A3028F480931F0181E080931E019D
:1004F0008F910F900FBE0F901F90189582B184605E
:1005000082B983B18B7F83B989DE9DDE46DE6CDEE6
:10051000789460E070E084E690E092DF2FEF87EA65
:1005200091E6215080409040E1F700C0000041E09A
:1005300064E470E081E05FDF2FEF89EF90E021500D
:1005400080409040E1F700C0000083B1846083B92F
:1005500041E060E470E081E04EDF2FEF80E792E061
:10056000215080409040E1F700C0000024E630E0D8
:1005700040E050E060E770E081E04CDF2FEF80E783
:1005800092E0215080409040E1F700C00000EE244E
:10059000EA94FE2CCC24CA94DC2CCFEFDFEF04E6E7
:1005A00010E080911E01882321F1F89420911F0111
:1005B00010921E01789430E0ACE2B1E04CD029E317
:1005C0003EE843EE58E356D000E27DD0422E532E53
:1005D000642E752ED301C201B695A7959795879580
:1005E0008C019C01AD014427552760E770E081E054
:1005F00011DF65DE4C01CF3F2FEFD20779F0C8172E
:10060000D90720F48C1B9D0B049740F48C169D0693
:1006100068F4CE0188199909049740F0940140E0EC
:1006200050E064E770E081E0F5DEE4010E151F059F
:1006300019F4CC15DD0529F0BE01C80101DF7801F0
:100640006E018FEF90E722E0815090402040E1F76B
:1006500000C00000A6CFA29FB001B39FC001A39F1E
:10066000700D811D1124911DB29F700D811D1124EB
:10067000911D0895E894DF93CF93FC01DB01EBDF3C
:100680007F936F93E9019A01AC01BF93AF933F93BE
:100690002F93DF01E0DF26F46C1B7D0B820B930BA5
:1006A0009E01EB01FC012BD0AF91BF912F913F91A7
:1006B00026D0BE01CF01F9012F913F91CF91DF915B
:1006C000089597FB10F8169400080F93083098F0DF
:1006D0000850232F342F452F562F672F782F892F1F
:1006E000902DF4CF059497958795779567955795B5
:1006F0004795379527950A95AAF70F910895ABDF8F
:10070000460F571FC81FD91F08F4319608950F933D
:100710001F93CF93DF93CDB7DEB72E970FB6F89424
:10072000DEBF0FBECDBF0D891E898F89988D26E053
:100730002C831A83098397FF02C080E090E8019719
:100740009E838D83AE01455E5F4F698D7A8DCE01AC
:10075000019619D04D815E8157FD0AC02F813885E1
:10076000421753070CF49A01F801E20FF31F1082AD
:100770002E960FB6F894DEBF0FBECDBFDF91CF919E
:100780001F910F9108952F923F924F925F926F9217
:100790007F928F929F92AF92BF92CF92DF92EF9211
:1007A000FF920F931F93CF93DF93CDB7DEB72B97B5
:1007B0000FB6F894DEBF0FBECDBF6C017B018A017E
:1007C000FC0117821682838181FFBFC1CE01019691
:1007D0003C01F6019381F70193FD859193FF81918F
:1007E0007F01882309F4ADC1853239F493FD8591E9
:1007F00093FF81917F01853221F4B60190E0D6D13B
:10080000E8CF912C212C312CFFE1F315D8F08B325D
:1008100079F038F4803279F08332A1F4232D20610D
:100820001DC08D3261F0803369F4232D216016C024
:10083000832D8260382EE32DE4603E2E2AC0F32DF6
:10084000F8601DC037FC2DC020ED280F2A3040F085
:100850008E32B9F436FC75C1232D2064322E19C0B6
:1008600036FE06C08AE0989E200D1124922E11C0FB
:10087000EAE02E9E200D1124222EF32DF0623F2E51
:1008800008C08C3621F4832D8068382E02C088364B
:1008900041F4F70193FD859193FF81917F018111CF
:1008A000B3CF982F9F7D9554933028F40C5F1F4F42
:1008B0009FE399830DC0833631F0833771F0833520
:1008C00009F055C020C0F801808189830E5F1F4F59
:1008D00088248394912C530112C02801F2E04F0E1A
:1008E000511CF801A080B18036FE03C0692D70E074
:1008F00002C06FEF7FEFC5014ED14C018201F32D95
:10090000FF773F2E15C0280122E0420E511CF8014E
:10091000A080B18036FE03C0692D70E002C06FEF89
:100920007FEFC5012DD14C01F32DF0683F2E8201E0
:1009300033FC19C0822D90E088169906A0F4B60108
:1009400080E290E033D12A94F5CFF50137FC859110
:1009500037FE81915F01B60190E028D121102A94E1
:1009600021E0821A91088114910479F7E1C084365C
:1009700011F0893639F5F80137FE07C060817181C1
:10098000828193810C5F1F4F08C060817181072EA7
:10099000000C880B990B0E5F1F4FF32DFF763F2E37
:1009A00097FF09C090958095709561957F4F8F4F07
:1009B0009F4FF0683F2E2AE030E0A30133D1882E0C
:1009C000861844C0853731F4232D2F7EB22E2AE0BD
:1009D00030E025C0932D997FB92E8F36C1F018F4E1
:1009E000883579F0AEC0803719F0883721F0A9C07A
:1009F000E92FE061BE2EB4FE0DC0FB2DF460BF2ECA
:100A000009C034FE0AC0292F2660B22E06C028E095
:100A100030E005C020E130E002C020E132E0F80122
:100A2000B7FE07C060817181828193810C5F1F4F87
:100A300006C06081718180E090E00E5F1F4FA301CE
:100A4000F1D0882E8618FB2DFF773F2E36FE0DC085
:100A5000232D2E7FA22E891458F434FE0BC032FCB5
:100A600009C0832D8E7EA82E05C0B82CA32C03C0F0
:100A7000B82C01C0B92CA4FE0FC0FE01E80DF11D79
:100A80008081803321F49A2D997EA92E09C0A2FE7F
:100A900006C0B394B39404C08A2D867809F0B39449
:100AA000A3FC10C0A0FE06C0B21480F4280C922C47
:100AB0009B180DC0B21458F4B60180E290E076D0D5
:100AC000B394F8CFB21418F42B1802C0982C212C30
:100AD000A4FE0FC0B60180E390E068D0A2FE16C06D
:100AE000A1FC03C088E790E002C088E590E0B60171
:100AF0000CC08A2D867851F0A1FE02C08BE201C0A5
:100B000080E2A7FC8DE2B60190E050D0891430F469
:100B1000B60180E390E04AD09A94F8CF8A94F3012A
:100B2000E80DF11D8081B60190E040D08110F6CF34
:100B3000222009F44ECEB60180E290E037D02A940C
:100B4000F7CFF6018681978102C08FEF9FEF2B963A
:100B50000FB6F894DEBF0FBECDBFDF91CF911F91CE
:100B60000F91FF90EF90DF90CF90BF90AF909F904C
:100B70008F907F906F905F904F903F902F9008954F
:100B8000FC010590615070400110D8F78095909558
:100B90008E0F9F1F0895FC0161507040019001105D
:100BA000D8F7809590958E0F9F1F08950F931F93F0
:100BB000CF93DF93FB01238121FD03C08FEF9FEFD4
:100BC0002CC022FF16C046815781248135814217EF
:100BD000530744F4A081B1819D012F5F3F4F3183C2
:100BE00020838C93268137812F5F3F4F3783268365
:100BF00014C08B01EC01FB010084F185E02D099507
:100C0000892BE1F6D80116968D919C911797019644
:100C100017969C938E931697CE01DF91CF911F91DB
:100C20000F910895FA01AA27283051F1203181F15E
:100C3000E8946F936E7F6E5F7F4F8F4F9F4FAF4FE4
:100C4000B1E03ED0B4E03CD0670F781F891F9A1FF7
:100C5000A11D680F791F8A1F911DA11D6A0F711DAB
:100C6000811D911DA11D20D009F468943F912AE0B7
:100C7000269F11243019305D3193DEF6CF0108959F
:100C8000462F4770405D4193B3E00FD0C9F7F6CFD0
:100C9000462F4F70405D4A3318F0495D31FD405298
:100CA000419302D0A9F7EACFB4E0A695979587952E
:100CB00077956795BA95C9F700976105710508950D
:100CC0009B01AC010A2E06945795479537952795B9
:100CD000BA95C9F7620F731F841F951FA01D089551
:040CE000F894FFCFB6
:100CE40053706565643A2534752020202020005017
:0E0CF4006F7320203A25347520202020200028
:00000001FF
