S015000044617930325F5461736B3030322E737265630B
S113000045C0000058C0000056C0000054C00000A5
S113001052C0000050C000004EC000004CC00000A0
S11300204AC0000048C0000046C0000044C00000B0
S113003042C0000040C000003EC000003CC00000C0
S11300403AC0000038C0000036C0000034C00000D0
S113005032C0000030C000002EC000002CC00000E0
S11300602AC0000028C0000026C0000024C00000F0
S113007022C0000020C000001EC000001CC0000000
S11300801AC0000018C0000016C0000011241FBED2
S1130090CFEFD0E1DEBFCDBF11E0A0E0B1E0EEE7ED
S11300A0F4E000E00BBF02C007900D92A631B10747
S11300B0D9F727D1E2C1A4CF81B38C7F81BB82B3AE
S11300C0836082BB1092710088E48093700084E0A6
S11300D080937400089584EA80937400809174007E
S11300E08823E4F78EE48093730084E8809374009B
S11300F0809174008823E4F7089584E98093740060
S113010008958093730084E8809374008091740050
S11301108823E4F70895CF93C82FDDDF8C2F886000
S1130120F0DF8C2F8C60EDDF85E08A95F1F700001D
S11301308C2F837F8860E5DFE0DF87EC90E0019718
S1130140F1F700C00000CF910895CF93C82F807FAE
S1130150E2DF8C2F8295807FDEDFC150C23030F425
S11301608FE39FE10197F1F700C00000CF9108955C
S1130170CF93C82F807F8160CEDF20E1C29FC00172
S113018011248160C8DFCF91089596DF2FEF80E7B7
S113019092E0215080409040E1F700C0000080E3ED
S11301A0BADF8FE19EE40197F1F700C0000080E31D
S11301B0B2DF8FE193E00197F1F700C0000080E324
S11301C0AADF80E2A8DF88E2C0DF8CE0BEDF86E041
S11301D0BCDF81E0BACF089581E0B7CF08958111E3
S11301E004C080E8860FB1CF089580EC860FADCFB0
S11301F00895CF93DF93EA01F2DF02C0B9DF2196BD
S113020088818111FBCFDF91CF910895EF92FF9206
S11302100F931F93CF93DF93CDB7DEB72C970FB611
S1130220F894DEBF0FBECDBFF82EE62ECA010097AC
S113023029F480E3898301E010E039C0992344F470
S11302402DE2298391958195910921E030E002C046
S113025020E030E089010FC06AE070E0B6D0E1E050
S1130260F0E0EC0FFD1FE00FF11F805D8083862F0F
S1130270972F0F5F1F4F1816190674F3C8010197C3
S113028013C0A1E0B0E0AC0FBD1FA20FB31F4C918F
S1130290E1E0F0E0EC0FFD1FE80FF91F50815C93E3
S11302A040832F5F3F4F01972817390754F3E1E04C
S11302B0F0E0EC0FFD1FE00FF11F1082AE014F5F65
S11302C05F4F6E2D8F2D95DF2C960FB6F894DEBF01
S11302D00FBECDBFDF91CF911F910F91FF90EF9093
S11302E0089580E487B987E886B9089587B1807E48
S11302F087B986B1806486B93699FECF84B195B149
S113030008958FEF8ABB8BBBE1E6F0E080818E7F9E
S11303108083E7DF3ADF60DF40E051E060E080E0C7
S113032068DF44E051E060E081E063DFDFDFEC019F
S11303308C01000F012F001F110B11959C01A2E3EA
S1130340B0E078D02FEF33E040E050E051D06901C5
S11303507A0181E090E002C0880F991F0A95E2F7C4
S113036080958BBB40E151E060E081E042DFAE016B
S113037060E081E04BDF9601ADECBCEC5BD0EC01BE
S1130380D695C795D695C795D695C795AE0167E01E
S113039081E03CDFCE01880F991FCC0FDD1FCC0F0D
S11303A0DD1FCC0FDD1FC80FD91FA6014C1B5D0B31
S11303B069E081E02BDF2FEF81EE94E02150804053
S11303C09040E1F700C00000B1CF97FB072E16F470
S11303D0009406D077FD08D03CD007FC05D03EF44D
S11303E0909581959F4F0895709561957F4F0895DD
S11303F0A1E21A2EAA1BBB1BFD010DC0AA1FBB1F25
S1130400EE1FFF1FA217B307E407F50720F0A21B96
S1130410B30BE40BF50B661F771F881F991F1A9403
S113042069F760957095809590959B01AC01BD012D
S1130430CF010895A29FB001B39FC001A39F700D87
S1130440811D1124911DB29F700D811D1124911DD8
S11304500895AA1BBB1B51E107C0AA1FBB1FA61707
S1130460B70710F0A61BB70B881F991F5A95A9F759
S111047080959095BC01CD010895F894FFCFBE
S113047E4A43470030202020202020302E305600C2
S109048E202020200000E4
S9030000FC
