S014000044617930345F5461736B30352E7372656337
S113000045C0000058C0000056C0000054C00000A5
S113001052C0000050C000004EC000004CC00000A0
S11300204AC0000048C0000046C0000044C00000B0
S1130030B4C1000040C000003EC000003CC000004D
S11300403AC0000038C0000036C0000034C00000D0
S113005032C0000030C000002EC000002CC00000E0
S11300602AC0000028C0000026C0000024C00000F0
S113007022C0000020C000001EC000001CC0000000
S11300801AC0000018C0000016C0000011241FBED2
S1130090CFEFD0E1DEBFCDBF11E0A0E0B1E0E8E6F4
S11300A0F4E000E00BBF02C007900D92AA3EB10736
S11300B0D9F7F4D0D7C1A4CF82B1846082B983B117
S11300C0846083B9089582B18E7F82B982B18260DF
S11300D082B91BB81092900080E189B988E18AB98D
S11300E086E08093950008955D9BFECF8CB90895BA
S11300F0CF93DF93EC0102C0F7DF21968881811151
S1130100FBCFDF91CF9108951F93CF93DF9300D05E
S113011000D000D0CDB7DEB7AC01892B79F580E3F0
S1130120E3DF3CC09A01ADECBCEC8DD1969587958C
S113013096958795969587959C01220F331F880F76
S1130140991F880F991F880F991F820F931F9A0177
S1130150281B390BC901805DE1E0F0E0EC0FFD1FC5
S1130160E10FF11D80839A016ED1AC01569547953C
S113017056954795569547951F5F01C010E0411568
S1130180510581F609C01150E1E0F0E0EC0FFD1FCC
S1130190E10FF11D8081A8DF1111F5CF26960FB66E
S11301A0F894DEBF0FBECDBFDF91CF911F910895AC
S11301B08BB1881F8827881F08958CB1089587B351
S11301C0806887BB88B3806888BB81E08093000126
S11301D01FBC1EBC1DBC1CBC88EB9BE090930201A1
S11301E080930101809101019091020101979BBDCF
S11301F08ABD80E186BF87B7806187BF8AE08EBDF4
S11302000895853B9105C8F49C01A8E0B7E01BD193
S113021024EB30E040E050E0F4D0DA01C901885A20
S11302209D4FAF4FBF4F9C01220F331F8FB7F894E0
S113023030930201209301018FBF0895DC018C915A
S1130240882331F140E020E030E017C050ED590F31
S11302505A3000F5F901EE0FFF1F220F331F220F52
S1130260331F220F331F2E0F3F1F290F311D205321
S11302703109253B310580F44F5FFD01E40FF11D89
S113028090819111E3CFFB013183208381E00895B4
S113029080E0089580E0089580E00895CF93DF938F
S11302A0CDB7DEB72A970FB6F894DEBF0FBECDBF29
S11302B003DF09DF84DF78948AE590E0A2DF8EE62D
S11302C091E016DF83E091E013DF8EE191E010DF2F
S11302D08DE391E00DDF82E591E00ADF81E791E0B3
S11302E007DF00E065DF8823E9F367DF182FFCDE12
S11302F01D3011F01A3061F50023A1F3E1E0F0E0C4
S1130300EC0FFD1FE00FF11D10828EE691E0F0DE90
S1130310BE01675F7F4FCE01019690DF882369F0AD
S113032089859A856EDF8CE791E0E2DE89859A857E
S1130330EBDE8CE891E0DCDE06C086E991E0D8DEF5
S113034084EB91E0D5DE81E791E0D2DE00E0CACF14
S1130350183011F01F3759F4002309F4C3CF0150AA
S113036088E0C2DE80E2C0DE88E0BEDEBBCF0730BC
S113037048F4E1E0F0E0EC0FFD1FE00FF11D108305
S11303800F5FB0CF8EE691E0B3DE81ED91E0B0DE99
S113039081E791E0ADDE00E0A5CF1F920F920FB68A
S11303A00F9211242F933F934F935F938F939F93B7
S11303B0809101019091020120910001222369F0B2
S11303C028B32F7728BB109200012FE33CE9A90141
S11303D0481B590B5BBD4ABD09C028B3206828BB24
S11303E021E02093000101979BBD8ABD9F918F91CD
S11303F05F914F913F912F910F900FBE0F901F90DF
S11304001895A1E21A2EAA1BBB1BFD010DC0AA1F41
S1130410BB1FEE1FFF1FA217B307E407F50720F069
S1130420A21BB30BE40BF50B661F771F881F991FE4
S11304301A9469F760957095809590959B01AC012D
S1130440BD01CF010895A29FB001B39FC001A39F36
S1130450700D811D1124911DB29F700D811D1124F9
S10B0460911D0895F894FFCFEB
S113046801B80B5347393020536572766F20436FB8
S11304786E74726F6C2053746172740D0A00507537
S11304886C73652052616E6765203A20363030758A
S113049873207E203234303075730D0A00496E693A
S11304A87469616C20416E676C65203A2039300D9F
S11304B80A00456E74657220307E31383020616ED2
S11304C86420707265737320456E7465722E0D0A0C
S11304D8000D0A414E474C45203E200053455256D4
S11304E84F204D4F56454420544F20002044454743
S11304F85245450D0A004552524F52203A20454E66
S113050854455220494E544547455220307E31388F
S1130518300D0A00534552564F20504F5349544901
S11305284F4E204E4F54204348414E4745440D0AF0
S1130538004552524F52203A20494E5055542054A7
S10D05484F4F204C4F4E470D0A00A0
S9030000FC
