:1000000045C0000058C0000056C0000054C00000A9
:1000100052C0000050C000004EC000004CC00000A4
:100020004AC0000048C0000046C0000044C00000B4
:1000300042C0000040C000003EC000003CC00000C4
:100040003AC0000038C0000036C0000034C00000D4
:1000500032C0000030C000002EC000002CC00000E4
:100060002AC0000028C0000026C0000024C00000F4
:1000700022C0000020C000001EC000001CC0000004
:100080001AC0000018C0000016C0000011241FBED6
:10009000CFEFD0E1DEBFCDBF11E0A0E0B1E0E0E8FE
:1000A000F3E000E00BBF02C007900D92AA39B10740
:1000B000D9F7D7D063C1A4CF82B18E7F82B982B184
:1000C000826082B91092900080E189B988E18AB992
:1000D00086E08093950008955D9BFECF8CB90895CE
:1000E000CF93DF93EC0102C0F7DF21968881811165
:1000F000FBCFDF91CF9108951F93CF93DF9300D073
:1001000000D000D0CDB7DEB7AC01892B79F580E304
:10011000E3DF3CC09A01ADECBCEC21D1969587950C
:1001200096958795969587959C01220F331F880F8A
:10013000991F880F991F880F991F820F931F9A018B
:10014000281B390BC901E1E0F0E0EC0FFD1FE10FC6
:10015000F11D805D80839A0102D1AC0156954795CF
:1001600056954795569547951F5F01C010E041157C
:10017000510581F609C01150E1E0F0E0EC0FFD1FE0
:10018000E10FF11D8081A8DF1111F5CF26960FB682
:10019000F894DEBF0FBECDBFDF91CF911F910895C0
:1001A000E1E6F0E080818D7F8083E2E6F0E080810F
:1001B0008D7F808381E487B987E886B986B18064C2
:1001C00086B93699FECF089597B1907E8770892BB6
:1001D00087B986B1806486B93699FECF84B195B16E
:1001E0000895CF92DF92EF92FF921F93CF93DF9308
:1001F0006623F9F0D62F182FC0E0C12CD12C760140
:100200000DC0812FE1DFC80ED91EE11CF11C8FE368
:100210009FE10197F1F700C00000CF5FCD1788F391
:100220002D2F30E040E050E0C701B60176D0C90183
:1002300002C080E090E0DF91CF911F91FF90EF909E
:10024000DF90CF9008958531910540F0BC01645155
:10025000710980EC92E14DD0CB0108958FEF9FEFB3
:1002600008952ADF9DDF88E491E03ADF80E091E0A5
:1002700037DF81E291E034DF85E391E031DF88E42C
:1002800091E02EDF60E181E0ACDFEC01CC978934B6
:10029000934048F08BE491E023DFCE012DDF88E42A
:1002A00091E01EDF1CC0CE01CEDF8C014497CD97BC
:1002B00048F08DE691E014DFCE011EDF88E491E086
:1002C0000FDF0DC082E891E00BDFC80115DF8EE87B
:1002D00091E006DFCE0110DF88E491E001DF8FEFCF
:1002E00091EE24E0815090402040E1F700C00000F2
:1002F000C9CFAA1BBB1B51E107C0AA1FBB1FA61772
:10030000B70710F0A61BB70B881F991F5A95A9F7BE
:1003100080959095BC01CD010895A1E21A2EAA1BEB
:10032000BB1BFD010DC0AA1FBB1FEE1FFF1FA217A5
:10033000B307E407F50720F0A21BB30BE40BF50BA2
:10034000661F771F881F991F1A9469F7609570952B
:10035000809590959B01AC01BD01CF010895A29FAE
:10036000B001B39FC001A39F700D811D1124911D89
:10037000B29F700D811D1124911D0895F894FFCF37
:100380005053442044697374616E6365204D656108
:10039000737572656D656E742053746172740D0AA5
:1003A00000414443204368616E6E656C203A2050E2
:1003B00046310D0A00426175642052617465202047
:1003C000203A2035373630300D0A004552524F5210
:1003D000203A20496E76616C69642041444320765E
:1003E000616C75652C20414443203D20004F5554DD
:1003F000204F462052414E47452C20414443203D4A
:10040000200044697374616E6365203A20002063A4
:0A0410006D2C20414443203A2000E7
:00000001FF
