:1000000045C0000058C0000056C0000054C00000A9
:1000100052C0000050C000004EC000004CC00000A4
:100020004AC0000048C0000046C0000044C00000B4
:1000300042C0000040C000003EC000003CC00000C4
:100040003AC0000038C0000036C0000034C00000D4
:1000500032C0000030C000002EC000002CC00000E4
:100060002AC0000028C0000026C0000024C00000F4
:1000700022C0000020C000001EC000001CC0000004
:100080001AC0000018C0000016C0000011241FBED6
:10009000CFEFD0E1DEBFCDBF11E0A0E0B1E0E6E2FE
:1000A000F1E000E00BBF02C007900D92AE30B10747
:1000B000D9F729D036C0A4CF81B38B7F81BB81B360
:1000C000886081BB10929B001092980087E6809315
:1000D000990088E080939A0086E080939D000895BF
:1000E00090919B0095FFFCCF80939C000895CF9347
:1000F000DF93EC0102C0F4DF219688818111FBCFF0
:10010000DF91CF910895D8DF80E091E0F0DF2FEF0D
:1001100083ED90E3215080409040E1F700C0000063
:06012000F3CFF894FFCFBD
:0E01260048656C6C6F576F726C64210D0A0097
:00000001FF
