:1000000045C0000053C0000051C0000097C0000070
:10001000CDC000004BC0000049C0000047C0000038
:1000200045C0000043C0000041C000003FC00000C8
:100030003DC000003BC0000039C0000037C00000D8
:1000400035C0000033C0000031C000002FC00000E8
:100050002DC000002BC0000029C0000027C00000F8
:1000600025C0000023C0000021C000001FC0000008
:100070001DC000001BC0000019C0000017C0000018
:1000800015C0000013C0000011C0000011241FBEE5
:10009000CFEFD0E1DEBFCDBF21E0A0E0B1E001C0F5
:1000A0001D92A230B207E1F702D0B9C0A9CF9FEFED
:1000B0009ABB82B18F7C82B981B3837F81BB9BBBAA
:1000C00083B1806383B982B38C6082BB80EA809302
:1000D0006A008CE088BF89BF789481B1807311F485
:1000E0001BBAFBCF0C9903C08FE08BBBF6CF0D99E9
:1000F00003C080EF8BBBF1CF809100019091010193
:10010000892B59F71BBA2FEF89E698E121508040DF
:100110009040E1F700C00000809100019091010142
:10012000892BD9F68FEF8BBB2FEF89E698E1215011
:1001300080409040E1F700C00000CFCF1F920F92A7
:100140000FB60F9211242F933F934F938F939F934A
:1001500081E090E0909301018093000127E030E07E
:1001600015C081E090E0022E02C0880F991F0A940A
:10017000E2F780958BBB4FEF81EE94E041508040D9
:100180009040E1F700C000002150310933234CF7C3
:1001900010920101109200019F918F914F913F9118
:1001A0002F910F900FBE0F901F9018951F920F92D6
:1001B0000FB60F9211242F933F934F938F939F93DA
:1001C00081E090E0909301018093000120E030E015
:1001D00015C081E090E0022E02C0880F991F0A949A
:1001E000E2F780958BBB4FEF81EE94E04150804069
:1001F0009040E1F700C000002F5F3F4F28303105ED
:1002000044F310920101109200019F918F914F9140
:100210003F912F910F900FBE0F901F901895F8945B
:02022000FFCF0E
:00000001FF
