:1000000045C0000053C0000051C00000F1C0000016
:1000100038C1000071C00000AEC0000047C0000041
:1000200045C0000043C0000041C000003FC00000C8
:100030003DC000003BC0000039C0000037C00000D8
:1000400035C0000033C0000031C000002FC00000E8
:100050002DC000002BC0000029C0000027C00000F8
:1000600025C0000023C0000021C000001FC0000008
:100070001DC000001BC0000019C0000017C0000018
:1000800015C0000013C0000011C0000011241FBEE5
:10009000CFEFD0E1DEBFCDBF21E0A0E0B1E001C0F5
:1000A0001D92A130B207E1F702D0FBC0A9CF8FEFBC
:1000B0008ABB11BA12B88BBB8CE082BB80E383B9D8
:1000C00080EA80936A008AE08ABF8CE388BF89BF98
:1000D00078948091000180958BBB809100018F5FA7
:1000E000809300012FEF81EE94E0215080409040FA
:1000F000E1F700C00000EDCF1F920F920FB60F92F4
:1001000011242F933F934F935F936F937F938F931C
:100110009F9360E070E087E01EC0982F90959BBB96
:100120002FEF35EA9EE0215030409040E1F700C0CB
:100130000000282F30E0220F331F881F8827881FD8
:10014000822B4F5F5F4F02C040E050E048305105C6
:1001500024F36F5F7F4F62307105B4F39F918F91ED
:100160007F916F915F914F913F912F910F900FBEB3
:100170000F901F9018951F920F920FB60F92112497
:100180002F933F934F935F936F937F938F939F939F
:1001900060E070E080EE1CC0982F90959BBB4FEF05
:1001A00055EA9EE0415050409040E1F700C0000009
:1001B00090E8899FA00111248695842B2F5F3F4FE3
:1001C00002C020E030E02830310534F36F5F7F4F0C
:1001D00062307105B4F39F918F917F916F915F9120
:1001E0004F913F912F910F900FBE0F901F90189538
:1001F0001F920F920FB60F9211242F933F934F939C
:100200008F939F9327E030E015C081E090E0022EAD
:1002100002C0880F991F0A94E2F780958BBB4FEFBD
:1002200081EE94E0415080409040E1F700C0000032
:100230002150310933234CF721E030E015C081E033
:1002400090E0022E02C0880F991F0A94E2F7809571
:100250008BBB4FEF81EE94E0415080409040E1F73E
:1002600000C000002F5F3F4F2830310544F39F91BD
:100270008F914F913F912F910F900FBE0F901F9034
:1002800018951F920F920FB60F9211248F93109210
:1002900000018FEF8BBB8F910F900FBE0F901F90BF
:0602A0001895F894FFCF51
:00000001FF
