:1000000054C000006FC000006DC000006BC0000055
:1000100069C0000067C0000065C0000063C0000048
:1000200061C000005FC000005DC000005BC0000058
:1000300059C0000057C0000055C0000024C4000093
:1000400051C000004FC000004DC000004BC0000078
:1000500049C0000047C0000045C0000043C0000088
:1000600041C000003FC000003DC000003BC0000098
:1000700039C0000037C0000035C0000033C00000A8
:1000800031C000002FC000002DC000002E024A0227
:10009000640282029A02B102C8024B0366034E0355
:1000A0005103540357035A035D0311241FBECFEFBE
:1000B000D0E1DEBFCDBF11E0A0E0B1E0E6E5F9E0C0
:1000C00000E00BBF02C007900D92AE33B107D9F725
:1000D00021E0AEE3B1E001C01D92A134B207E1F727
:1000E000A0D337C48DCF81B38C7F81BB82B38360B3
:1000F00082BB1092710088E48093700084E080934A
:100100007400089584EA80937400809174008823B9
:10011000E4F78EE48093730084E880937400809108
:1001200074008823E4F7089584E9809374000895A7
:100130008093730084E88093740080917400882316
:10014000E4F70895CF93C82FDDDF8C2F8860F0DFB0
:100150008C2F8C60EDDF85E08A95F1F700008C2F05
:10016000837F8860E5DFE0DF87EC90E00197F1F7BF
:1001700000C00000CF910895CF93C82F807FE2DFA9
:100180008C2F8295807FDEDFC150C23030F48FE348
:100190009FE10197F1F700C00000CF910895CF9340
:1001A000C82F807F8160CEDF20E1C29FC001112473
:1001B0008160C8DFCF91089596DF2FEF80E792E04E
:1001C000215080409040E1F700C0000080E3BADF9A
:1001D0008FE19EE40197F1F700C0000080E3B2DFF9
:1001E0008FE193E00197F1F700C0000080E3AADF00
:1001F00080E2A8DF88E2C0DF8CE0BEDF86E0BCDF03
:1002000081E0BACF089581E0B7CF0895811104C08D
:1002100080E8860FB1CF089580EC860FADCF0895AA
:10022000CF93DF93EA01F2DF02C0B9DF2196888124
:100230008111FBCFDF91CF91089582B18F7C82B97C
:1002400083B1806383B90895E1E6F0E080818E7F19
:100250008083E2E6F0E080818E7F808380E487B94E
:1002600087E886B986B1806486B93699FECF08954D
:1002700087B1807E87B986B1806486B93699FECF12
:1002800084B195B10895FB0160E070E04E1B5F0BF7
:10029000610971099A01AB012F5F3F4F4F4F5F4FCB
:1002A000DC014DD3DC01CB01072E7AE0B695A79592
:1002B000979587957A95D1F7702D8E0F9F1F08958A
:1002C00013BE12BE89EF81BF82E086BF87B782600E
:1002D00087BF8BE083BF0895AC019C0132952295C6
:1002E0002F7023273F702327AEE3BAE019D320E90C
:1002F00031E0BC01629FC001639F900D729F900D21
:10030000112448175907D1F09A013695279536954B
:100310002795ABE7B4E104D39695879564E6689F8B
:100320009001699F300D11244217530749F0437023
:10033000552781E0452B29F080E0089581E008955C
:1003400080E00895663089F028F4623049F0643026
:1003500029F40BC0693049F06B3039F08FE1089512
:10036000BBDF882321F08DE108958EE108958CE1B3
:100370000895CF93DF93C4E0D1E06A8188819981A9
:10038000E1DF9B81891710F48093070180910701B9
:10039000811103C081E080930701DF91CF9108951F
:1003A000CF93E4E0F1E086818F5F868386818C3392
:1003B000A8F1168285818F5F858385818C3370F1EA
:1003C000158284818F5F84838481883138F114821F
:1003D00083818F5F8383C381628180819181B2DF5A
:1003E0008C17E0F4E4E0F1E081E0838382818F5FA9
:1003F000828382818D3090F081E08283808191813F
:10040000019691838083808191818433984030F07C
:1004100080ED97E09093050180930401CF910895BA
:10042000CF93DF939091020180913F01981741F0A3
:10043000809302018FEF9FEF909301018093000161
:1004400017DFEC01E0913F018E2F90E0873091059E
:1004500008F0B4C0FC01EA5BFF4F59C243E358E027
:1004600060ED77E0CE010FDFEC018091000190910B
:100470000101C817D90709F4A1C0D0930501C093A1
:10048000040177DFD0930101C093000181E08093E4
:10049000030194C04CE050E061E070E0CE01F3DE77
:1004A000EC018091000190910101C817D90709F46E
:1004B00085C0C09306015DDFD0930101C0930001A8
:1004C00081E0809303017AC0E4E0F1E06281808101
:1004D000918138DF482F50E061E070E0CE01D3DE3B
:1004E00020910001309101018217930709F466C041
:1004F00080930701909301018093000181E0809334
:1005000003015CC047E150E060E070E0CE01BBDE7B
:1005100020910001309101018217930709F44EC028
:1005200080930801909301018093000181E0809302
:10053000030144C04BE350E060E070E0CE01A3DE75
:10054000209100013091010182179307B9F1809346
:100550000901909301018093000181E080930301E0
:100560002DC04BE350E060E070E0CE018CDE2091C6
:100570000001309101018217930701F180930A0174
:10058000909301018093000181E08093030116C0E4
:1005900043E650E060E070E0CE0175DE209100019E
:1005A000309101018217930749F080930B019093DA
:1005B00001018093000181E080930301DF91CF91DD
:1005C000089580913F01873018F48F5F80933F0139
:1005D00080913F01873011F4109240010895FC0191
:1005E0008FB7F894A4E0B1E02D913C91119731833D
:1005F000208312969C911297928313969C91139745
:10060000938314969C911497948315969C911597B7
:10061000958316969C911697968317969C9197832F
:100620008FBF0895DC0190E006C0FD01E90FF11DC8
:1006300020E220839F5F9031C0F350961C92089572
:10064000FC0170E0DC01A60FB71F9DEC499F912DC6
:10065000112496959695969580E3890F8C936F5FFC
:100660007F4FE60FF71F990F892F880F880F980F7C
:10067000491B405D4083089580914001811123C052
:10068000E0913F018E2F90E088309105C8F4FC0185
:10069000E35BFF4F3CC181E191E008958BE191E084
:1006A000089580E291E0089585E291E008958AE25C
:1006B00091E008958FE291E0089584E391E0089538
:1006C00089E391E008958CE091E0089586E191E05E
:1006D00008951F93CF93DF93CDB7DEB7AA970FB6D8
:1006E000F894DEBF0FBECDBFCE01019678DFCE01FC
:1006F000099698DFCE014A9695DF49815A819A0181
:100700003695279536952795ABE7B4E109D19695AF
:10071000879564E6689F9001699F300D1124CA0196
:10072000821B930B482F60E0CE01099689DF4B8135
:1007300062E0CE01099684DF4C8164E0CE01099627
:100740007FDF9ADFFC018081888B8181898B8281A8
:100750008A8B83818B8B4D8160E0CE014A9670DF5E
:100760001AE31C8F4E8163E0CE014A9669DF1F8F2A
:100770004F8166E0CE014A9663DF8EE28AA3488508
:1007800069E0CE014A965CDFAE01475F5F4F60E0F3
:1007900080E046DDAE01465E5F4F60E081E040DD17
:1007A000AA960FB6F894DEBF0FBECDBFDF91CF91F2
:1007B0001F91089521B1482F30E0082E02C03595D1
:1007C00027950A94E2F720FD28C02FEF39EF60E06B
:1007D000215030406040E1F700C0000021B130E01E
:1007E000B90102C0759567958A95E2F760FD17C05B
:1007F00081B190E0042E02C0959587950A94E2F7A6
:1008000080FFF6CF7FEF89EF90E0715080409040FD
:10081000E1F700C0000081E0089580E0089580E0E5
:1008200008950BDD11DD4CDDC7DCEDDC78948091A3
:100830003F01873051F0F4DD84E0BCDF8823A9F06C
:10084000C0DE81E08093030110C0809140018111DE
:100850000CC085E0AFDF882341F09FB7F89481E0BA
:10086000809340019FBF80930301809103018823FF
:1008700019F0109203012DDF8FE99FE00197F1F746
:1008800000C00000D4CF1F920F920FB60F92112418
:100890000BB60F922F933F934F935F936F937F937A
:1008A0008F939F93AF93BF93EF93FF9380914001FA
:1008B000811103C010923E0117C080913E018F5FED
:1008C00080933E018A3080F010923E01E4E0F1E036
:1008D00087818F5F878381E08093030187818436DE
:1008E00018F010920B015CDDFF91EF91BF91AF9179
:1008F0009F918F917F916F915F914F913F912F9138
:100900000F900BBE0F900FBE0F901F901895EE0F1B
:10091000FF1F0024001C0BBE0790F691E02D0994E8
:10092000A29FB001B39FC001A39F700D811D112430
:10093000911DB29F700D811D1124911D0895F0DF4E
:10094000A59F900DB49F900DA49F800D911D112423
:060950000895F894FFCFAA
:10095600FFFF0701EA0701010000000052554E2083
:100966000059454152004D4F4E2000444159200048
:10097600484F5552004D494E200053454320004DE7
:0E0986005345430057414954002020202000D3
:00000001FF
