:1000000045C0000058C0000056C0000054C00000A9
:1000100052C0000050C000004EC000004CC00000A4
:100020004AC0000048C0000046C0000044C00000B4
:1000300042C0000040C000003EC000003CC00000C4
:100040003AC0000038C0000036C0000034C00000D4
:1000500032C0000030C000002EC000002CC00000E4
:100060002AC0000028C0000026C0000024C00000F4
:1000700022C0000020C000001EC000001CC0000004
:100080001AC0000018C0000016C0000011241FBED6
:10009000CFEFD0E1DEBFCDBF11E0A0E0B1E0ECE8F2
:1000A000F2E000E00BBF02C007900D92A433B1074D
:1000B000D9F79FD0E9C0A4CF1092900080E189B910
:1000C0001BB888E18AB986E08093950008955F9B0C
:1000D000FECF8CB108955D9BFECF8CB90895CF9370
:1000E000DF93EC0102C0F7DF219688818111FBCFFD
:1000F000DF91CF91089521E030E002C0220F331F3D
:100100008A95E2F720952BBB08958FEF8BBB08955E
:10011000CF9380E0F0DF2FEF82E597E02150804021
:100120009040E1F700C00000C7E00FC08C2FE3DF74
:1001300081E091E0D4DF2FEF82E597E0215080400D
:100140009040E1F700C00000C150CC237CF7CF9174
:100150000895CF9380E0CFDF2FEF82E597E0215025
:1001600080409040E1F700C00000C1E00FC08C2F3C
:10017000C2DF88E091E0B3DF2FEF82E597E0215006
:1001800080409040E1F700C00000CF5FC83078F3B6
:1001900080E0B1DF88E091E0A2DF2FEF82E597E019
:1001A000215080409040E1F700C00000CF910895B9
:1001B000CF9391B181E0292F207194FF80E0C82F67
:1001C00080910001813089F421110FC02FEF89EF58
:1001D00090E0215080409040E1F700C000000C9971
:1001E00004C093DF80E191E07ADFC0930001CF91FA
:1001F0000895CF93DF93CDB7DEB72B970FB6F89462
:10020000DEBF0FBECDBF8BE0E8E2F1E0DE0111966C
:1002100001900D928A95E1F78FEF8ABB8BBB82B17B
:100220008F7E82B983B1806183B982B18E7F82B9BA
:1002300082B1826082B982B1846082B983B1846004
:1002400083B93ADF88E191E04ADFB2DF5F9BFDCFFF
:100250003EDF182F8D30C9F38A30B9F380ED810F5E
:10026000883030F448DF1983CE01019638DFEDCFB6
:10027000183311F44DDFE9CF193311F46ADFE5CFFC
:0C02800080E291E02CDFE1CFF894FFCF8A
:10028C00014C4546540D0A0052494748540D0A008A
:10029C0052455345540D0A0052454144590D0A002C
:1002AC004552524F520D0A0030204C4544206F6E7F
:0402BC000D0A000027
:00000001FF
