:1000000045C0000058C0000056C0000054C00000A9
:1000100052C0000050C000004EC000004CC00000A4
:100020004AC0000048C0000046C0000044C00000B4
:1000300042C0000040C000003EC000003CC00000C4
:100040003AC0000038C0000036C0000034C00000D4
:1000500032C0000030C000002EC000002CC00000E4
:100060002AC0000028C0000026C0000024C00000F4
:1000700022C0000020C000001EC000001CC0000004
:100080001AC0000018C0000016C0000011241FBED6
:10009000CFEFD0E1DEBFCDBF11E0A0E0B1E0ECE5F5
:1000A000F5E000E00BBF02C007900D92A23DB10742
:1000B000D9F778D151C2A4CF82B18E7F82B982B1F3
:1000C000826082B91092900080E189B988E18AB992
:1000D00086E08093950008955D9BFECF8CB90895CE
:1000E000CF93DF93EC0102C0F7DF21968881811165
:1000F000FBCFDF91CF9108951F93CF93DF9300D073
:1001000000D000D0CDB7DEB7AC01892B79F580E304
:10011000E3DF3CC09A01ADECBCECA0D1969587958D
:1001200096958795969587959C01220F331F880F8A
:10013000991F880F991F880F991F820F931F9A018B
:10014000281B390BC901E1E0F0E0EC0FFD1FE10FC6
:10015000F11D805D80839A0181D1AC015695479550
:1001600056954795569547951F5F01C010E041157C
:10017000510581F609C01150E1E0F0E0EC0FFD1FE0
:10018000E10FF11D8081A8DF1111F5CF26960FB682
:10019000F894DEBF0FBECDBFDF91CF911F910895C0
:1001A000E1E6F0E080818D7F8083E2E6F0E080810F
:1001B0008D7F808381E487B987E886B986B18064C2
:1001C00086B93699FECF089597B1907E8770892BB6
:1001D00087B986B1806486B93699FECF84B195B16E
:1001E0000895DC019B011A961D921D921D921C928E
:1001F0001D971E961C921E9790E019C0E92FF0E003
:10020000EE0FFF1FEA0FFB1F318320831A964D91DB
:100210005D916D917C911D97420F531F611D711D62
:100220001A964D935D936D937C931D979F5F9530C8
:1002300028F381E01F968C9308958F929F92AF923E
:10024000BF92CF92DF92EF92FF920F93FC01AB012E
:100250002685A22FB0E0AA0FBB1FA80FB91FED90F3
:10026000FC90119782849384A484B584C501B40161
:100270006E197F09810991094D935C93640F751F75
:10028000811D911D62877387848795872F5F2687DD
:10029000253008F016862DEC3CEC4CEC5CECEDD0F7
:1002A00000E214D1822E932EA42EB52ED501C401C6
:1002B000B695A79597958795B695A79597958795A0
:1002C0000F91FF90EF90DF90CF90BF90AF909F90F5
:1002D0008F9008958531910580F0A0E0B0E09C01F9
:1002E000AD01245131094109510960E87BEB80E0FF
:1002F00090E098D0CA01B90108956FEF7FEFCB016C
:100300000895CF92DF92EF92FF920F931F93CF93B6
:10031000DF938C01EB0180E091E0E2DEC801ECDECE
:1003200086E091E0DDDECE01E7DECE014497853D3B
:10033000934020F084E191E0D3DE2BC0CE01CADFF0
:10034000992324F48CE291E0CBDE23C02AE030E054
:1003500040E050E067D069017A01C62F24313105B1
:1003600020F484E491E0BCDE14C02135310520F096
:1003700083E591E0B5DE0DC080E691E0B1DEC60117
:10038000BBDE8EE2A9DE80E38C0FA6DE8EE691E076
:10039000A7DEDF91CF911F910F91FF90EF90DF903B
:1003A000CF900895CF93DF93CDB7DEB760970FB6A8
:1003B000F894DEBF0FBECDBFFE01319680E1DF01B4
:1003C0001D928A95E9F778DEEBDE8EEC91E088DE0F
:1003D00083E791E085DE85E991E082DE89EA91E0BC
:1003E0007FDE8BEB91E07CDE8EEC91E079DE81E0CC
:1003F000EBDE8C018889811104C0B801CE01019621
:10040000F0DEB801CE01019618DFBC01C80179DF2A
:10041000BFEF21EE84E0B15020408040E1F700C002
:100420000000E5CF052E97FB16F400940FD057FD82
:1004300005D068D007FC02D046F408C0509540951E
:10044000309521953F4F4F4F5F4F08959095809580
:10045000709561957F4F8F4F9F4F0895A29FB00178
:10046000B39FC001A39F700D811D1124911DB29FE8
:10047000700D811D1124911D0895E894DF93CF9391
:10048000FC01DB01EBDF7F936F93E9019A01AC0183
:10049000BF93AF933F932F93DF01E0DF26F46C1BF4
:1004A0007D0B820B930B9E01EB01FC014DD0AF91B4
:1004B000BF912F913F9148D0BE01CF01F9012F91FB
:1004C0003F91CF91DF91089597FB10F816940008A3
:1004D0000F93083098F00850232F342F452F562FB4
:1004E000672F782F892F902DF4CF059497958795B6
:1004F0007795679557954795379527950A95AAF764
:100500000F910895A1E21A2EAA1BBB1BFD010DC07D
:10051000AA1FBB1FEE1FFF1FA217B307E407F507B3
:1005200020F0A21BB30BE40BF50B661F771F881F8F
:10053000991F1A9469F760957095809590959B0125
:10054000AC01BD01CF01089589DF460F571FC81FB9
:0C055000D91F08F431960895F894FFCFED
:10055C005241573A2000207C2046494C5445524584
:10056C00443A2000207C204552524F523A20494EAA
:10057C0056414C4944204144430D0A00207C2045FF
:10058C0052524F523A2043414C43554C4154494FDF
:10059C004E0D0A00207C20544F4F20434C4F5345A6
:1005AC000D0A00207C20544F4F204641520D0A006A
:1005BC00207C2044495354414E43453A2000636DFE
:1005CC000D0A00505344204D6F76696E67204176BA
:1005DC0065726167652046696C746572205374613D
:1005EC0072740D0A00414443204368616E6E656C61
:1005FC00203A205046310D0A0046696C7465722011
:10060C0053697A65203A20350D0A004261756420E1
:10061C00526174652020203A2035373630300D0A6F
:02062C000000CC
:00000001FF
